{
  "contractName": "BlackJack",
  "abi": [
    {
      "inputs": [],
      "payable": false,
      "stateMutability": "nonpayable",
      "type": "constructor"
    },
    {
      "anonymous": false,
      "inputs": [
        {
          "indexed": false,
          "internalType": "address",
          "name": "_from",
          "type": "address"
        },
        {
          "indexed": false,
          "internalType": "address",
          "name": "_to",
          "type": "address"
        },
        {
          "indexed": false,
          "internalType": "uint256",
          "name": "amount",
          "type": "uint256"
        }
      ],
      "name": "MoneyFlow",
      "type": "event"
    },
    {
      "anonymous": false,
      "inputs": [
        {
          "indexed": false,
          "internalType": "string",
          "name": "status",
          "type": "string"
        }
      ],
      "name": "dealerBust",
      "type": "event"
    },
    {
      "anonymous": false,
      "inputs": [
        {
          "indexed": false,
          "internalType": "string",
          "name": "status",
          "type": "string"
        }
      ],
      "name": "dealerWon",
      "type": "event"
    },
    {
      "anonymous": false,
      "inputs": [
        {
          "indexed": false,
          "internalType": "bool",
          "name": "betPlaced",
          "type": "bool"
        }
      ],
      "name": "debug",
      "type": "event"
    },
    {
      "anonymous": false,
      "inputs": [
        {
          "indexed": false,
          "internalType": "string",
          "name": "status",
          "type": "string"
        }
      ],
      "name": "playerWon",
      "type": "event"
    },
    {
      "anonymous": false,
      "inputs": [
        {
          "indexed": false,
          "internalType": "uint256",
          "name": "dealerCard",
          "type": "uint256"
        },
        {
          "indexed": false,
          "internalType": "uint256",
          "name": "dealerTotalScore",
          "type": "uint256"
        }
      ],
      "name": "showDealerCard",
      "type": "event"
    },
    {
      "anonymous": false,
      "inputs": [
        {
          "indexed": false,
          "internalType": "uint256",
          "name": "playerFirstCard",
          "type": "uint256"
        },
        {
          "indexed": false,
          "internalType": "uint256",
          "name": "playerSecondCard",
          "type": "uint256"
        },
        {
          "indexed": false,
          "internalType": "uint256",
          "name": "dealerFirstCard",
          "type": "uint256"
        }
      ],
      "name": "showFirstHand",
      "type": "event"
    },
    {
      "anonymous": false,
      "inputs": [
        {
          "indexed": false,
          "internalType": "uint256",
          "name": "playerCard",
          "type": "uint256"
        },
        {
          "indexed": false,
          "internalType": "uint256",
          "name": "playerTotalScore",
          "type": "uint256"
        }
      ],
      "name": "showPlayerCard",
      "type": "event"
    },
    {
      "anonymous": false,
      "inputs": [
        {
          "indexed": false,
          "internalType": "string",
          "name": "status",
          "type": "string"
        }
      ],
      "name": "tie",
      "type": "event"
    },
    {
      "constant": true,
      "inputs": [],
      "name": "dealerScore",
      "outputs": [
        {
          "internalType": "uint256",
          "name": "",
          "type": "uint256"
        }
      ],
      "payable": false,
      "stateMutability": "view",
      "type": "function"
    },
    {
      "constant": true,
      "inputs": [],
      "name": "hit_sign",
      "outputs": [
        {
          "internalType": "bool",
          "name": "",
          "type": "bool"
        }
      ],
      "payable": false,
      "stateMutability": "view",
      "type": "function"
    },
    {
      "constant": true,
      "inputs": [],
      "name": "insurance_text",
      "outputs": [
        {
          "internalType": "string",
          "name": "",
          "type": "string"
        }
      ],
      "payable": false,
      "stateMutability": "view",
      "type": "function"
    },
    {
      "constant": true,
      "inputs": [],
      "name": "paybackBalance",
      "outputs": [
        {
          "internalType": "uint256",
          "name": "",
          "type": "uint256"
        }
      ],
      "payable": false,
      "stateMutability": "view",
      "type": "function"
    },
    {
      "constant": true,
      "inputs": [],
      "name": "placeBet_sign",
      "outputs": [
        {
          "internalType": "bool",
          "name": "",
          "type": "bool"
        }
      ],
      "payable": false,
      "stateMutability": "view",
      "type": "function"
    },
    {
      "constant": true,
      "inputs": [
        {
          "internalType": "address",
          "name": "",
          "type": "address"
        }
      ],
      "name": "playerBalance",
      "outputs": [
        {
          "internalType": "uint256",
          "name": "",
          "type": "uint256"
        }
      ],
      "payable": false,
      "stateMutability": "view",
      "type": "function"
    },
    {
      "constant": true,
      "inputs": [],
      "name": "playerScore",
      "outputs": [
        {
          "internalType": "uint256",
          "name": "",
          "type": "uint256"
        }
      ],
      "payable": false,
      "stateMutability": "view",
      "type": "function"
    },
    {
      "constant": true,
      "inputs": [],
      "name": "stand_sign",
      "outputs": [
        {
          "internalType": "bool",
          "name": "",
          "type": "bool"
        }
      ],
      "payable": false,
      "stateMutability": "view",
      "type": "function"
    },
    {
      "constant": false,
      "inputs": [],
      "name": "payInsurance",
      "outputs": [],
      "payable": false,
      "stateMutability": "nonpayable",
      "type": "function"
    },
    {
      "constant": false,
      "inputs": [],
      "name": "placeDeposit",
      "outputs": [],
      "payable": true,
      "stateMutability": "payable",
      "type": "function"
    },
    {
      "constant": false,
      "inputs": [
        {
          "internalType": "uint256",
          "name": "_betValue",
          "type": "uint256"
        }
      ],
      "name": "setBetValue",
      "outputs": [],
      "payable": false,
      "stateMutability": "nonpayable",
      "type": "function"
    },
    {
      "constant": false,
      "inputs": [],
      "name": "placeBet",
      "outputs": [
        {
          "internalType": "uint256",
          "name": "",
          "type": "uint256"
        },
        {
          "internalType": "uint256",
          "name": "",
          "type": "uint256"
        },
        {
          "internalType": "uint256",
          "name": "",
          "type": "uint256"
        }
      ],
      "payable": false,
      "stateMutability": "nonpayable",
      "type": "function"
    },
    {
      "constant": false,
      "inputs": [],
      "name": "hit",
      "outputs": [
        {
          "internalType": "uint256",
          "name": "",
          "type": "uint256"
        }
      ],
      "payable": false,
      "stateMutability": "nonpayable",
      "type": "function"
    },
    {
      "constant": false,
      "inputs": [],
      "name": "stand",
      "outputs": [],
      "payable": false,
      "stateMutability": "nonpayable",
      "type": "function"
    },
    {
      "constant": false,
      "inputs": [
        {
          "internalType": "address payable",
          "name": "_cashOutAddress",
          "type": "address"
        }
      ],
      "name": "cashOut",
      "outputs": [],
      "payable": true,
      "stateMutability": "payable",
      "type": "function"
    },
    {
      "constant": true,
      "inputs": [],
      "name": "testAddress",
      "outputs": [
        {
          "internalType": "address",
          "name": "",
          "type": "address"
        }
      ],
      "payable": false,
      "stateMutability": "view",
      "type": "function"
    },
    {
      "constant": true,
      "inputs": [],
      "name": "playercardstatus",
      "outputs": [
        {
          "internalType": "uint256",
          "name": "",
          "type": "uint256"
        }
      ],
      "payable": false,
      "stateMutability": "view",
      "type": "function"
    },
    {
      "constant": true,
      "inputs": [],
      "name": "dealercardstatus",
      "outputs": [
        {
          "internalType": "uint256",
          "name": "",
          "type": "uint256"
        }
      ],
      "payable": false,
      "stateMutability": "view",
      "type": "function"
    },
    {
      "constant": true,
      "inputs": [],
      "name": "player_balance",
      "outputs": [
        {
          "internalType": "uint256",
          "name": "",
          "type": "uint256"
        }
      ],
      "payable": false,
      "stateMutability": "view",
      "type": "function"
    },
    {
      "constant": true,
      "inputs": [],
      "name": "helper_stand",
      "outputs": [
        {
          "internalType": "bool",
          "name": "",
          "type": "bool"
        }
      ],
      "payable": false,
      "stateMutability": "view",
      "type": "function"
    },
    {
      "constant": true,
      "inputs": [],
      "name": "helper_hit",
      "outputs": [
        {
          "internalType": "bool",
          "name": "",
          "type": "bool"
        }
      ],
      "payable": false,
      "stateMutability": "view",
      "type": "function"
    },
    {
      "constant": true,
      "inputs": [],
      "name": "helper_placeBet",
      "outputs": [
        {
          "internalType": "bool",
          "name": "",
          "type": "bool"
        }
      ],
      "payable": false,
      "stateMutability": "view",
      "type": "function"
    },
    {
      "constant": true,
      "inputs": [],
      "name": "helper_payinsurance",
      "outputs": [
        {
          "internalType": "string",
          "name": "",
          "type": "string"
        }
      ],
      "payable": false,
      "stateMutability": "view",
      "type": "function"
    },
    {
      "constant": false,
      "inputs": [
        {
          "internalType": "address",
          "name": "_paybackaddr",
          "type": "address"
        }
      ],
      "name": "helper_dealer_check",
      "outputs": [],
      "payable": false,
      "stateMutability": "nonpayable",
      "type": "function"
    },
    {
      "constant": true,
      "inputs": [],
      "name": "get_payer_balance",
      "outputs": [
        {
          "internalType": "uint256",
          "name": "",
          "type": "uint256"
        }
      ],
      "payable": false,
      "stateMutability": "view",
      "type": "function"
    }
  ],
  "bytecode": "0x608060405233600260006101000a81548173ffffffffffffffffffffffffffffffffffffffff021916908373ffffffffffffffffffffffffffffffffffffffff1602179055506000600860006101000a81548160ff0219169083151502179055506000600860016101000a81548160ff0219169083151502179055506000600860026101000a81548160ff0219169083151502179055506000600860036101000a81548160ff0219169083151502179055506000600860046101000a81548160ff02191690831515021790555060006009556000600a60006101000a81548160ff0219169083151502179055506000600a60016101000a81548160ff0219169083151502179055506000600a60026101000a81548160ff0219169083151502179055506000600b5534801561013357600080fd5b5033600160006101000a81548173ffffffffffffffffffffffffffffffffffffffff021916908373ffffffffffffffffffffffffffffffffffffffff160217905550612243806101846000396000f3fe6080604052600436106101665760003560e01c80638b7032b7116100d1578063c2897b101161008a578063e98d59d411610064578063e98d59d414610638578063eabbdef214610667578063ef0957e714610696578063f90f4560146106c157610166565b8063c2897b101461054d578063d679868414610564578063d8a71364146105f457610166565b80638b7032b7146104075780639426996c1461043257806397651b141461045d5780639988a5c31461048857806399a7b9a91461051857806399b0e9e31461052257610166565b8063426f4d6711610123578063426f4d67146102c35780634e33f83b146102fe57806368a74d54146103635780637d2677fc1461037a57806380cfedab146103a957806385260e77146103d857610166565b8063060fc5691461016b57806307a88fef14610196578063262330b4146101c15780632740356d146102185780632ae3594a146102475780633e12d5d314610272575b600080fd5b34801561017757600080fd5b506101806106fa565b6040518082815260200191505060405180910390f35b3480156101a257600080fd5b506101ab610704565b6040518082815260200191505060405180910390f35b3480156101cd57600080fd5b506101d661070a565b604051808273ffffffffffffffffffffffffffffffffffffffff1673ffffffffffffffffffffffffffffffffffffffff16815260200191505060405180910390f35b34801561022457600080fd5b5061022d610734565b604051808215151515815260200191505060405180910390f35b34801561025357600080fd5b5061025c61074b565b6040518082815260200191505060405180910390f35b34801561027e57600080fd5b506102c16004803603602081101561029557600080fd5b81019080803573ffffffffffffffffffffffffffffffffffffffff169060200190929190505050610a7b565b005b3480156102cf57600080fd5b506102fc600480360360208110156102e657600080fd5b8101908080359060200190929190505050610ac3565b005b34801561030a57600080fd5b5061034d6004803603602081101561032157600080fd5b81019080803573ffffffffffffffffffffffffffffffffffffffff169060200190929190505050610b44565b6040518082815260200191505060405180910390f35b34801561036f57600080fd5b50610378610b5c565b005b34801561038657600080fd5b5061038f610ec9565b604051808215151515815260200191505060405180910390f35b3480156103b557600080fd5b506103be610edc565b604051808215151515815260200191505060405180910390f35b3480156103e457600080fd5b506103ed610eef565b604051808215151515815260200191505060405180910390f35b34801561041357600080fd5b5061041c610f06565b6040518082815260200191505060405180910390f35b34801561043e57600080fd5b50610447610f4c565b6040518082815260200191505060405180910390f35b34801561046957600080fd5b50610472610f52565b6040518082815260200191505060405180910390f35b34801561049457600080fd5b5061049d610f5c565b6040518080602001828103825283818151815260200191508051906020019080838360005b838110156104dd5780820151818401526020810190506104c2565b50505050905090810190601f16801561050a5780820380516001836020036101000a031916815260200191505b509250505060405180910390f35b610520610ffa565b005b34801561052e57600080fd5b50610537611194565b6040518082815260200191505060405180910390f35b34801561055957600080fd5b5061056261119a565b005b34801561057057600080fd5b5061057961188b565b6040518080602001828103825283818151815260200191508051906020019080838360005b838110156105b957808201518184015260208101905061059e565b50505050905090810190601f1680156105e65780820380516001836020036101000a031916815260200191505b509250505060405180910390f35b6106366004803603602081101561060a57600080fd5b81019080803573ffffffffffffffffffffffffffffffffffffffff16906020019092919050505061192d565b005b34801561064457600080fd5b5061064d611a42565b604051808215151515815260200191505060405180910390f35b34801561067357600080fd5b5061067c611a59565b604051808215151515815260200191505060405180910390f35b3480156106a257600080fd5b506106ab611a6c565b6040518082815260200191505060405180910390f35b3480156106cd57600080fd5b506106d6611a76565b60405180848152602001838152602001828152602001935050505060405180910390f35b6000600b54905090565b60035481565b6000600160009054906101000a900473ffffffffffffffffffffffffffffffffffffffff16905090565b6000600a60029054906101000a900460ff16905090565b60006015600354106107c5576040517f08c379a000000000000000000000000000000000000000000000000000000000815260040180806020018281038252601a8152602001807f416c7265616479206275737465642c20646f206e6f742068697400000000000081525060200191505060405180910390fd5b60001515600860009054906101000a900460ff1615151461084e576040517f08c379a00000000000000000000000000000000000000000000000000000000081526004018080602001828103825260208152602001807f596f7520616c7265616479207374616e6465642c2063616e6e6f74206869742e81525060200191505060405180910390fd5b60001515600860029054906101000a900460ff161515146108ba576040517f08c379a00000000000000000000000000000000000000000000000000000000081526004018080602001828103825260358152602001806121da6035913960400191505060405180910390fd5b60006108c4611e66565b90507fc16a8a52071b1d9986708fc5ea4e277302d698edbc610f358121f3ffdff9135681600354604051808381526020018281526020019250505060405180910390a160156003541115610a5c577fd11ee9913a2d8a87eaadfda2a05e694d19546036f4a896bfeed8a517953b2f8360405180806020018281038252600d8152602001807f506c61796572206275737465640000000000000000000000000000000000000081525060200191505060405180910390a16001600860026101000a81548160ff0219169083151502179055506000600860016101000a81548160ff021916908315150217905550600060038190555060006004819055506000600860006101000a81548160ff0219169083151502179055506000600860046101000a81548160ff0219169083151502179055506000600860036101000a81548160ff0219169083151502179055507f14df7a7d6bc2878705c0de53cf97f130b9ea4fd2eba933c6a203b898327630db600860019054906101000a900460ff16604051808215151515815260200191505060405180910390a15b6001600a60006101000a81548160ff0219169083151502179055505090565b6000808273ffffffffffffffffffffffffffffffffffffffff1673ffffffffffffffffffffffffffffffffffffffff16815260200190815260200160002054600b8190555050565b806005819055506000600a60016101000a81548160ff0219169083151502179055506000600a60006101000a81548160ff0219169083151502179055506000600a60026101000a81548160ff0219169083151502179055506040518060200160405280600081525060069080519060200190610b4092919061204d565b5050565b60006020528060005260406000206000915090505481565b6040518060400160405280601b81526020017f496e737572616e6365206e6f7420617661696c61626c65206e6f77000000000081525060069080519060200190610ba792919061204d565b5060011515600860039054906101000a900460ff16151514610c31576040517f08c379a000000000000000000000000000000000000000000000000000000000815260040180806020018281038252601b8152602001807f496e737572616e6365206e6f7420617661696c61626c65206e6f77000000000081525060200191505060405180910390fd5b6040518060400160405280601a81526020017f496e737572616e636520697320616c726561647920706169642e00000000000081525060069080519060200190610c7c92919061204d565b5060001515600860049054906101000a900460ff16151514610d06576040517f08c379a000000000000000000000000000000000000000000000000000000000815260040180806020018281038252601a8152602001807f496e737572616e636520697320616c726561647920706169642e00000000000081525060200191505060405180910390fd5b6000600260055481610d1457fe5b061415610d3357600260055481610d2757fe5b04600781905550610d4a565b600260016005540181610d4257fe5b046007819055505b6040518060600160405280602881526020016120f36028913960069080519060200190610d7892919061204d565b506000803373ffffffffffffffffffffffffffffffffffffffff1673ffffffffffffffffffffffffffffffffffffffff168152602001908152602001600020546007541115610e12576040517f08c379a00000000000000000000000000000000000000000000000000000000081526004018080602001828103825260288152602001806120f36028913960400191505060405180910390fd5b6040518060400160405280601181526020017f496e737572616e6365206973207061696400000000000000000000000000000081525060069080519060200190610e5d92919061204d565b506007546000803373ffffffffffffffffffffffffffffffffffffffff1673ffffffffffffffffffffffffffffffffffffffff168152602001908152602001600020600082825403925050819055506001600860046101000a81548160ff021916908315150217905550565b600a60029054906101000a900460ff1681565b600a60009054906101000a900460ff1681565b6000600a60019054906101000a900460ff16905090565b60008060003373ffffffffffffffffffffffffffffffffffffffff1673ffffffffffffffffffffffffffffffffffffffff16815260200190815260200160002054905090565b600b5481565b6000600354905090565b60068054600181600116156101000203166002900480601f016020809104026020016040519081016040528092919081815260200182805460018160011615610100020316600290048015610ff25780601f10610fc757610100808354040283529160200191610ff2565b820191906000526020600020905b815481529060010190602001808311610fd557829003601f168201915b505050505081565b670de0b6b3a7640000348161100b57fe5b046000803373ffffffffffffffffffffffffffffffffffffffff1673ffffffffffffffffffffffffffffffffffffffff16815260200190815260200160002060008282540192505081905550600160009054906101000a900473ffffffffffffffffffffffffffffffffffffffff1673ffffffffffffffffffffffffffffffffffffffff166108fc349081150290604051600060405180830381858888f193505050501580156110bf573d6000803e3d6000fd5b507f0719ef6ca0bb7b1e124d89b693d6a182f791294bdd851da4c6982ec0c3df1ac833600160009054906101000a900473ffffffffffffffffffffffffffffffffffffffff16670de0b6b3a7640000348161111657fe5b04604051808473ffffffffffffffffffffffffffffffffffffffff1673ffffffffffffffffffffffffffffffffffffffff1681526020018373ffffffffffffffffffffffffffffffffffffffff1673ffffffffffffffffffffffffffffffffffffffff168152602001828152602001935050505060405180910390a1565b60045481565b60001515600860029054906101000a900460ff16151514611206576040517f08c379a00000000000000000000000000000000000000000000000000000000081526004018080602001828103825260358152602001806121da6035913960400191505060405180910390fd5b6001600860006101000a81548160ff021916908315150217905550600061122b611f03565b9050600a81148015611250575060011515600860049054906101000a900460ff161515145b1561133e576007546002026000803373ffffffffffffffffffffffffffffffffffffffff1673ffffffffffffffffffffffffffffffffffffffff168152602001908152602001600020600082825401925050819055506001600860026101000a81548160ff0219169083151502179055506000600860016101000a81548160ff021916908315150217905550600060038190555060006004819055506000600860006101000a81548160ff0219169083151502179055506000600860046101000a81548160ff0219169083151502179055506000600860036101000a81548160ff0219169083151502179055505b5b6011600454101561139d576000611354611f03565b90507fe2817456fd6feceae53e5a2bfd4747f9baecda09a7b2739d472e96050b443f0d81600454604051808381526020018281526020019250505060405180910390a15061133f565b5b60035460045410156113fd5760006113b4611f03565b90507fe2817456fd6feceae53e5a2bfd4747f9baecda09a7b2739d472e96050b443f0d81600454604051808381526020018281526020019250505060405180910390a15061139e565b6015600454111561158a577fc3731b40458d76948cd5343566e8ed5f7ab5edf0495048aa8f2d29a2fdbbc7e16040518080602001828103825260378152602001806121436037913960400191505060405180910390a16001600860026101000a81548160ff0219169083151502179055506000600860016101000a81548160ff021916908315150217905550600060038190555060006004819055506000600860006101000a81548160ff0219169083151502179055506000600860046101000a81548160ff0219169083151502179055506000600860036101000a81548160ff0219169083151502179055506005546002026000803373ffffffffffffffffffffffffffffffffffffffff1673ffffffffffffffffffffffffffffffffffffffff168152602001908152602001600020600082825401925050819055507f14df7a7d6bc2878705c0de53cf97f130b9ea4fd2eba933c6a203b898327630db600860019054906101000a900460ff16604051808215151515815260200191505060405180910390a161186d565b6003546004541415611715577fbc671b56ab88950d53cdf2dc36d11edfcd5bc4e1f6bf096fbb8102640be3af156040518080602001828103825260258152602001806121b56025913960400191505060405180910390a16001600860026101000a81548160ff0219169083151502179055506000600860016101000a81548160ff021916908315150217905550600060038190555060006004819055506000600860006101000a81548160ff0219169083151502179055506000600860046101000a81548160ff0219169083151502179055506000600860036101000a81548160ff0219169083151502179055506005546000803373ffffffffffffffffffffffffffffffffffffffff1673ffffffffffffffffffffffffffffffffffffffff168152602001908152602001600020600082825401925050819055507f14df7a7d6bc2878705c0de53cf97f130b9ea4fd2eba933c6a203b898327630db600860019054906101000a900460ff16604051808215151515815260200191505060405180910390a161186c565b600354600454111561186b577fd11ee9913a2d8a87eaadfda2a05e694d19546036f4a896bfeed8a517953b2f8360405180806020018281038252600a8152602001807f4465616c657220776f6e0000000000000000000000000000000000000000000081525060200191505060405180910390a16001600860026101000a81548160ff0219169083151502179055506000600860016101000a81548160ff021916908315150217905550600060038190555060006004819055506000600860006101000a81548160ff0219169083151502179055506000600860046101000a81548160ff0219169083151502179055506000600860036101000a81548160ff0219169083151502179055507f14df7a7d6bc2878705c0de53cf97f130b9ea4fd2eba933c6a203b898327630db600860019054906101000a900460ff16604051808215151515815260200191505060405180910390a15b5b5b6001600a60016101000a81548160ff02191690831515021790555050565b606060068054600181600116156101000203166002900480601f0160208091040260200160405190810160405280929190818152602001828054600181600116156101000203166002900480156119235780601f106118f857610100808354040283529160200191611923565b820191906000526020600020905b81548152906001019060200180831161190657829003601f168201915b5050505050905090565b6001600860026101000a81548160ff02191690831515021790555060011515600860029054906101000a900460ff161515146119b4576040517f08c379a000000000000000000000000000000000000000000000000000000000815260040180806020018281038252602881526020018061211b6028913960400191505060405180910390fd5b8073ffffffffffffffffffffffffffffffffffffffff166108fc349081150290604051600060405180830381858888f193505050501580156119fa573d6000803e3d6000fd5b5060008060008373ffffffffffffffffffffffffffffffffffffffff1673ffffffffffffffffffffffffffffffffffffffff1681526020019081526020016000208190555050565b6000600a60009054906101000a900460ff16905090565b600a60019054906101000a900460ff1681565b6000600454905090565b60008060008060003373ffffffffffffffffffffffffffffffffffffffff1673ffffffffffffffffffffffffffffffffffffffff168152602001908152602001600020546005541115611b31576040517f08c379a000000000000000000000000000000000000000000000000000000000815260040180806020018281038252601e8152602001807f596f7520646f6e2774206861766520656e6f7567682062616c616e63652e000081525060200191505060405180910390fd5b60001515600860019054906101000a900460ff16151514611bba576040517f08c379a00000000000000000000000000000000000000000000000000000000081526004018080602001828103825260188152602001807f596f7520686176656e277420706c61636564206120626574000000000000000081525060200191505060405180910390fd5b6000600860026101000a81548160ff0219169083151502179055506001600860016101000a81548160ff0219169083151502179055506005546000803373ffffffffffffffffffffffffffffffffffffffff1673ffffffffffffffffffffffffffffffffffffffff168152602001908152602001600020600082825403925050819055506000611c48611e66565b90506000611c54611e66565b90506000611c60611f03565b90507f8dd40729e46be2b4dbc0f1c2f49c700b5d85edf17be0c9436ec2b94ce82f5b1c83838360405180848152602001838152602001828152602001935050505060405180910390a1600183148015611cb95750600a82145b80611cd05750600a83148015611ccf5750600182145b5b15611dd3577fcdb4f08bd9927a37a4153b2e581866386207280dfdb6d645c5055bf1207fa0ce60405180806020018281038252603b81526020018061217a603b913960400191505060405180910390a16005546003026000803373ffffffffffffffffffffffffffffffffffffffff1673ffffffffffffffffffffffffffffffffffffffff168152602001908152602001600020600082825401925050819055506001600860026101000a81548160ff0219169083151502179055506000600860016101000a81548160ff021916908315150217905550600060038190555060006004819055506000600860006101000a81548160ff0219169083151502179055505b6001811415611df8576001600860036101000a81548160ff0219169083151502179055505b6001600a60026101000a81548160ff0219169083151502179055506000803373ffffffffffffffffffffffffffffffffffffffff1673ffffffffffffffffffffffffffffffffffffffff16815260200190815260200160002054600354600454955095509550505050909192565b6000601560035410611ee0576040517f08c379a000000000000000000000000000000000000000000000000000000000815260040180806020018281038252601a8152602001807f416c7265616479206275737465642c20646f206e6f742068697400000000000081525060200191505060405180910390fd5b6000611eea611fa0565b9050806003600082825401925050819055508091505090565b6000601560035410611f7d576040517f08c379a000000000000000000000000000000000000000000000000000000000815260040180806020018281038252601a8152602001807f416c7265616479206275737465642c20646f206e6f742068697400000000000081525060200191505060405180910390fd5b6000611f87611fa0565b9050806004600082825401925050819055508091505090565b60006009600081548092919060010191905055506000600d4233600954604051602001808481526020018373ffffffffffffffffffffffffffffffffffffffff1673ffffffffffffffffffffffffffffffffffffffff1660601b815260140182815260200193505050506040516020818303038152906040528051906020012060001c8161202a57fe5b069050600181019050600a811061204557600a91505061204a565b809150505b90565b828054600181600116156101000203166002900490600052602060002090601f016020900481019282601f1061208e57805160ff19168380011785556120bc565b828001600101855582156120bc579182015b828111156120bb5782518255916020019190600101906120a0565b5b5090506120c991906120cd565b5090565b6120ef91905b808211156120eb5760008160009055506001016120d3565b5090565b9056fe4e6f7420656e6f7567682062616c616e636520746f2070617920666f7220696e737572616e63652e506c61736520656e6420746869732067616d652066697273742c207468656e2063617368206f75744465616c6572206275737465642c20322074696d6573206265742076616c7565207472616e7366657272656420746f2062616c616e6365506c6179657220426c61636b204a61636b2c20332074696d6573206265742076616c7565207472616e7366657272656420746f2062616c616e63655469652c206265742076616c7565207472616e7366657272656420746f2062616c616e636543757272656e742067616d6520697320656e6465642c20706c6163652062657420746f2073746172742061206e65772067616d652ea265627a7a723158203aabaad32afdeb16d802f9ab663da602fca5072aab288c960b09f9d63c1ff58064736f6c63430005100032",
  "source": "// SPDX-License-Identifier: MIT\r\npragma solidity ^0.5.16;\r\n\r\ncontract BlackJack {\r\n//   bool public isLiked = false;\r\n\r\n//   function manageLike() external {\r\n//     isLiked = !isLiked;\r\n//   }\r\n\r\n//   function likeStatus() external view returns(bool) {\r\n//     return isLiked;\r\n//   }\r\n\r\n  mapping(address =>uint256) public playerBalance;\r\n    address payable dealerWallet;\r\n    address payable playerWallet = msg.sender;\r\n    uint256 public playerScore;\r\n    uint256 public dealerScore;\r\n    uint256 internal betValue;\r\n    string public insurance_text;\r\n    uint internal insuranceValue;\r\n    bool internal standFlag = false;\r\n    bool internal betPlaced = false;\r\n    bool internal gameInactive = false;\r\n    bool internal insuranceAvailable = false;\r\n    bool internal insurancePaid = false;\r\n    uint internal randNonce = 0;\r\n    bool public hit_sign = false;\r\n    bool public stand_sign = false;\r\n    bool public placeBet_sign = false;\r\n    uint public paybackBalance = 0;\r\n    \r\n    event MoneyFlow(\r\n        address _from,\r\n        address _to,\r\n        uint256 amount\r\n    );\r\n\r\n    event showFirstHand(\r\n        uint playerFirstCard,\r\n        uint playerSecondCard,\r\n        uint dealerFirstCard\r\n    );\r\n    event showPlayerCard(\r\n        uint playerCard,\r\n        uint playerTotalScore\r\n    );\r\n\r\n    event showDealerCard(\r\n        uint dealerCard,\r\n        uint dealerTotalScore\r\n    );\r\n\r\n    event dealerBust(\r\n        string status\r\n    );\r\n\r\n    event tie(\r\n        string status\r\n    );\r\n\r\n    event dealerWon(\r\n        string status\r\n    );\r\n\r\n    event playerWon(\r\n        string status\r\n    );\r\n    event debug(\r\n        bool betPlaced\r\n    );\r\n\r\n    modifier enoughBalance () {\r\n        require(betValue <= playerBalance[msg.sender],\"You don't have enough balance.\");\r\n        _;\r\n    }\r\n\r\n    modifier gameActive (){\r\n        require(gameInactive == false, \"Current game is ended, place bet to start a new game.\");\r\n        _;\r\n    }\r\n\r\n    modifier notBust () {\r\n        require(playerScore < 21, \"Already busted, do not hit\");\r\n        _;\r\n    }\r\n\r\n    modifier nonStand (){\r\n        require(standFlag == false, \"You already standed, cannot hit.\");\r\n        _;\r\n    }\r\n\r\n    modifier betNotPlaced (){\r\n        require(betPlaced == false, \"You haven't placed a bet\");\r\n        _;\r\n    }\r\n\r\n    constructor() public{\r\n        dealerWallet = msg.sender;\r\n    }\r\n\r\n    \r\n    function payInsurance() public {\r\n        insurance_text = \"Insurance not available now\";\r\n        require(insuranceAvailable == true, \"Insurance not available now\");\r\n        insurance_text = \"Insurance is already paid.\";\r\n        require(insurancePaid == false, \"Insurance is already paid.\");\r\n        if (betValue % 2 ==0){\r\n            insuranceValue = betValue / 2;\r\n        } \r\n        else{\r\n            insuranceValue = (betValue+1)/2;\r\n        }\r\n\r\n        insurance_text = \"Not enough balance to pay for insurance.\";\r\n        require(insuranceValue <= playerBalance[msg.sender], \"Not enough balance to pay for insurance.\");\r\n\r\n        insurance_text = \"Insurance is paid\";\r\n        playerBalance[msg.sender] -= insuranceValue;\r\n        insurancePaid = true;\r\n    }\r\n\r\n    function randomNumber() internal returns(uint){\r\n        randNonce++; \r\n        uint temp = uint(keccak256(abi.encodePacked(now,msg.sender,randNonce)))%13;\r\n        temp += 1;\r\n        if (temp>=10){\r\n            return 10;\r\n        } \r\n        else{\r\n            return temp;\r\n        }\r\n \r\n    }\r\n\r\n    function placeDeposit() external payable {\r\n        // buy number of tokens equal to the number of ethers sent\r\n        // require(msg.value > _limit, 'not enough!');\r\n        playerBalance[msg.sender] += msg.value/1000000000000000000;\r\n        // send ethers to dealer's wallet\r\n        dealerWallet.transfer(msg.value);\r\n        emit MoneyFlow(msg.sender, dealerWallet, msg.value/1000000000000000000);\r\n    }\r\n\r\n    // function placeDeposit(uint _values) external payable {\r\n    //     // buy number of tokens equal to the number of ethers sent\r\n    //     playerBalance[msg.sender] += _values/1000000000000000000;\r\n    //     // send ethers to dealer's wallet\r\n    //     dealerWallet.transfer(_values);\r\n    //     // emit MoneyFlow(msg.sender, dealerWallet, _values/1000000000000000000);\r\n    // }\r\n\r\n    function setBetValue(uint256 _betValue) public {\r\n        betValue = _betValue;\r\n        stand_sign = false;\r\n        hit_sign = false;\r\n        placeBet_sign = false;\r\n        insurance_text = '';\r\n    }\r\n\r\n    function placeBet() public enoughBalance betNotPlaced returns(uint256, uint256, uint256){\r\n        gameInactive = false;\r\n        betPlaced = true;\r\n        playerBalance[msg.sender] -= betValue;\r\n        uint temp1 = playerDrawCard();\r\n        uint temp2 = playerDrawCard();\r\n        uint temp3 = dealerDrawCard();\r\n        emit showFirstHand(temp1, temp2, temp3);\r\n\r\n        if ((temp1 == 1 && temp2 == 10)||(temp1==10 && temp2 == 1) ){\r\n            emit playerWon(\"Player Black Jack, 3 times bet value transferred to balance\");\r\n            playerBalance[msg.sender] += 3*betValue;\r\n            // initialize the game\r\n            gameInactive = true;\r\n            betPlaced = false;\r\n            playerScore = 0;\r\n            dealerScore = 0;\r\n            standFlag = false;\r\n        }\r\n\r\n        if (temp3 == 1){\r\n            insuranceAvailable = true;\r\n        }\r\n\r\n        placeBet_sign = true;\r\n        return (playerBalance[msg.sender],playerScore, dealerScore);\r\n\r\n    }\r\n\r\n    function playerDrawCard() internal notBust returns(uint){\r\n        uint score = randomNumber();\r\n        playerScore += score;\r\n        // emit showPlayerCard(score, playerScore);\r\n        return score;\r\n    }\r\n\r\n    function dealerDrawCard() internal notBust returns(uint){\r\n        uint score = randomNumber();\r\n        dealerScore += score;\r\n        return score;\r\n    }\r\n\r\n    function hit() public notBust nonStand gameActive returns(uint256){\r\n        uint temp = playerDrawCard();\r\n        emit showPlayerCard(temp,playerScore);\r\n\r\n        if (playerScore>21){\r\n            emit dealerWon(\"Player busted\");\r\n            gameInactive = true;\r\n            betPlaced = false;\r\n            playerScore = 0;\r\n            dealerScore = 0;\r\n            standFlag = false;\r\n            insurancePaid = false;\r\n            insuranceAvailable = false; \r\n            emit debug(betPlaced);\r\n        }\r\n        hit_sign = true;\r\n    }\r\n\r\n    function stand() public gameActive {\r\n        standFlag = true;\r\n        uint dealerSecondCard = dealerDrawCard();\r\n        if (dealerSecondCard == 10 && insurancePaid == true ){\r\n            playerBalance[msg.sender] += 2 * insuranceValue;\r\n            gameInactive = true;\r\n            betPlaced = false;\r\n            playerScore = 0;\r\n            dealerScore = 0;\r\n            standFlag = false;\r\n            insurancePaid = false;\r\n            insuranceAvailable = false; \r\n        }\r\n\r\n        while (dealerScore < 17){\r\n            uint temp = dealerDrawCard();\r\n            emit showDealerCard(temp,dealerScore);\r\n        }\r\n        while (dealerScore < playerScore){\r\n            uint temp = dealerDrawCard();\r\n            emit showDealerCard(temp,dealerScore);\r\n        }\r\n        if (dealerScore > 21) {\r\n            emit dealerBust(\"Dealer busted, 2 times bet value transferred to balance\");\r\n            gameInactive = true;\r\n            betPlaced = false;\r\n            playerScore = 0;\r\n            dealerScore = 0;\r\n            standFlag = false;\r\n            insurancePaid = false;\r\n            insuranceAvailable = false; \r\n            //  cash out balance\r\n            playerBalance[msg.sender] += 2 * betValue;\r\n            emit debug(betPlaced);\r\n        } else if (dealerScore == playerScore) {\r\n            emit tie(\"Tie, bet value transferred to balance\");\r\n            gameInactive = true;\r\n            betPlaced = false;\r\n            playerScore = 0;\r\n            dealerScore = 0;\r\n            standFlag = false;\r\n            insurancePaid = false;\r\n            insuranceAvailable = false; \r\n            //  cash out balance\r\n            playerBalance[msg.sender] += betValue;\r\n            emit debug(betPlaced);\r\n        } else if (dealerScore > playerScore){\r\n            emit dealerWon(\"Dealer won\");\r\n            gameInactive = true;\r\n            betPlaced = false;\r\n            playerScore = 0;\r\n            dealerScore = 0;\r\n            standFlag = false;\r\n            insurancePaid = false;\r\n            insuranceAvailable = false; \r\n            emit debug(betPlaced);\r\n        }\r\n        stand_sign = true;\r\n    }\r\n\r\n    function cashOut(address payable _cashOutAddress) payable public {\r\n        gameInactive = true;\r\n        require(gameInactive == true, \"Plase end this game first, then cash out\");\r\n        // this balance is checked by dealer by calling playerBalance\r\n        _cashOutAddress.transfer(msg.value);\r\n        playerBalance[_cashOutAddress] = 0;\r\n    }\r\n    \r\n    function testAddress() public view returns(address){\r\n        return dealerWallet;\r\n    }\r\n\r\n    // help functions\r\n    function playercardstatus() public view returns(uint){\r\n        return playerScore;\r\n    }\r\n\r\n    function dealercardstatus() public view returns(uint){\r\n        return dealerScore;\r\n    }\r\n\r\n    function player_balance() public view returns(uint256){\r\n        return playerBalance[msg.sender];\r\n    }\r\n\r\n    function helper_stand() public view returns(bool){\r\n        return stand_sign;\r\n    }\r\n\r\n    function helper_hit() public view returns(bool){\r\n        return hit_sign;\r\n    }\r\n\r\n    function helper_placeBet() public view returns(bool){\r\n        return placeBet_sign;\r\n    }\r\n\r\n    function helper_payinsurance() public view returns(string memory){\r\n        return insurance_text;\r\n    }\r\n\r\n    function helper_dealer_check(address _paybackaddr) public {\r\n        paybackBalance =  playerBalance[_paybackaddr];\r\n    }\r\n\r\n    function get_payer_balance() public view returns(uint) {\r\n        return paybackBalance;\r\n    }\r\n\r\n\r\n}",
  "sourcePath": "C:\\Users\\Legend QS\\Desktop\\1\\like-function\\contracts\\BlackJack.sol",
  "compiler": {
    "name": "solc",
    "version": "0.5.16+commit.9c3226ce.Emscripten.clang"
  },
  "schemaVersion": "3.4.7",
  "updatedAt": "2022-05-13T21:26:12.940Z",
  "networkType": "ethereum",
  "devdoc": {
    "methods": {}
  },
  "userdoc": {
    "methods": {}
  }
}